{
  "contractName": "Migrations",
  "abi": [
    {
      "inputs": [],
      "name": "last_completed_migration",
      "outputs": [
        {
          "internalType": "uint256",
          "name": "",
          "type": "uint256"
        }
      ],
      "stateMutability": "view",
      "type": "function",
      "constant": true
    },
    {
      "inputs": [],
      "name": "owner",
      "outputs": [
        {
          "internalType": "address",
          "name": "",
          "type": "address"
        }
      ],
      "stateMutability": "view",
      "type": "function",
      "constant": true
    },
    {
      "inputs": [],
      "name": "migrations",
      "outputs": [],
      "stateMutability": "nonpayable",
      "type": "function"
    },
    {
      "inputs": [
        {
          "internalType": "uint256",
          "name": "completed",
          "type": "uint256"
        }
      ],
      "name": "setCompleted",
      "outputs": [],
      "stateMutability": "nonpayable",
      "type": "function"
    },
    {
      "inputs": [
        {
          "internalType": "address",
          "name": "new_address",
          "type": "address"
        }
      ],
      "name": "upgrade",
      "outputs": [],
      "stateMutability": "nonpayable",
      "type": "function"
    }
  ],
  "bytecode": "0x608060405234801561001057600080fd5b50610235806100206000396000f3fe608060405234801561001057600080fd5b50600436106100675760003560e01c8063445df0ac11610050578063445df0ac146100b05780638da5cb5b146100cc578063fdacd576146100f757600080fd5b80630900f0101461006c5780630f7d694114610081575b600080fd5b61007f61007a3660046101b6565b61010a565b005b61007f600080547fffffffffffffffffffffffff00000000000000000000000000000000000000001633179055565b6100b960015481565b6040519081526020015b60405180910390f35b6000546100df906001600160a01b031681565b6040516001600160a01b0390911681526020016100c3565b61007f6101053660046101e6565b61019f565b6000546001600160a01b0316330361019c576001546040517ffdacd57600000000000000000000000000000000000000000000000000000000815282916001600160a01b0383169163fdacd576916101689160040190815260200190565b600060405180830381600087803b15801561018257600080fd5b505af1158015610196573d6000803e3d6000fd5b50505050505b50565b6000546001600160a01b0316330361019c57600155565b6000602082840312156101c857600080fd5b81356001600160a01b03811681146101df57600080fd5b9392505050565b6000602082840312156101f857600080fd5b503591905056fea2646970667358221220f7f36a5feede44c1d05389aeb1d3237d971bc5cd65002d37c0e2d80aee629c2a64736f6c63430008110033",
  "immutableReferences": {},
  "source": "//SPDX-License-Identifier: UNLICENSED\npragma solidity ^0.8.0;\n\ncontract Migrations {\n  address public owner;\n  uint public last_completed_migration;\n\n  modifier restricted() {\n    if (msg.sender == owner) _;\n  }\n\n  function migrations () public {\n    owner = msg.sender;\n  }\n\n  function setCompleted(uint completed) public restricted {\n    last_completed_migration = completed;\n  }\n\n  function upgrade(address new_address) public restricted {\n    Migrations upgraded = Migrations(new_address);\n    upgraded.setCompleted(last_completed_migration);\n  }\n}\n",
  "sourcePath": "/home/m0rs/MultiSigWallet/contracts/Migrations.sol",
  "compiler": {
    "name": "solc",
    "version": "0.8.17+commit.8df45f5f.Emscripten.clang"
  },
  "schemaVersion": "3.4.8",
  "updatedAt": "2022-10-01T13:27:21.023Z",
  "networkType": "ethereum",
  "devdoc": {
    "kind": "dev",
    "methods": {},
    "version": 1
  },
  "userdoc": {
    "kind": "user",
    "methods": {},
    "version": 1
  }
}