{
  "contractName": "MultiSigWalletWithDailyLimit",
  "abi": [
    {
      "inputs": [
        {
          "internalType": "address[]",
          "name": "_owners",
          "type": "address[]"
        },
        {
          "internalType": "uint256",
          "name": "_required",
          "type": "uint256"
        },
        {
          "internalType": "uint256",
          "name": "_dailyLimit",
          "type": "uint256"
        }
      ],
      "stateMutability": "nonpayable",
      "type": "constructor"
    },
    {
      "anonymous": false,
      "inputs": [
        {
          "indexed": true,
          "internalType": "address",
          "name": "sender",
          "type": "address"
        },
        {
          "indexed": true,
          "internalType": "uint256",
          "name": "transactionId",
          "type": "uint256"
        }
      ],
      "name": "Confirmation",
      "type": "event"
    },
    {
      "anonymous": false,
      "inputs": [
        {
          "indexed": false,
          "internalType": "uint256",
          "name": "dailyLimit",
          "type": "uint256"
        }
      ],
      "name": "DailyLimitChange",
      "type": "event"
    },
    {
      "anonymous": false,
      "inputs": [
        {
          "indexed": true,
          "internalType": "address",
          "name": "sender",
          "type": "address"
        },
        {
          "indexed": false,
          "internalType": "uint256",
          "name": "value",
          "type": "uint256"
        }
      ],
      "name": "Deposit",
      "type": "event"
    },
    {
      "anonymous": false,
      "inputs": [
        {
          "indexed": true,
          "internalType": "uint256",
          "name": "transactionId",
          "type": "uint256"
        }
      ],
      "name": "Execution",
      "type": "event"
    },
    {
      "anonymous": false,
      "inputs": [
        {
          "indexed": true,
          "internalType": "uint256",
          "name": "transactionId",
          "type": "uint256"
        }
      ],
      "name": "ExecutionFailure",
      "type": "event"
    },
    {
      "anonymous": false,
      "inputs": [
        {
          "indexed": true,
          "internalType": "address",
          "name": "owner",
          "type": "address"
        }
      ],
      "name": "OwnerAddition",
      "type": "event"
    },
    {
      "anonymous": false,
      "inputs": [
        {
          "indexed": true,
          "internalType": "address",
          "name": "owner",
          "type": "address"
        }
      ],
      "name": "OwnerRemoval",
      "type": "event"
    },
    {
      "anonymous": false,
      "inputs": [
        {
          "indexed": false,
          "internalType": "uint256",
          "name": "required",
          "type": "uint256"
        }
      ],
      "name": "RequirementChange",
      "type": "event"
    },
    {
      "anonymous": false,
      "inputs": [
        {
          "indexed": true,
          "internalType": "address",
          "name": "sender",
          "type": "address"
        },
        {
          "indexed": true,
          "internalType": "uint256",
          "name": "transactionId",
          "type": "uint256"
        }
      ],
      "name": "Revocation",
      "type": "event"
    },
    {
      "anonymous": false,
      "inputs": [
        {
          "indexed": true,
          "internalType": "uint256",
          "name": "transactionId",
          "type": "uint256"
        }
      ],
      "name": "Submission",
      "type": "event"
    },
    {
      "inputs": [],
      "name": "MAX_OWNER_COUNT",
      "outputs": [
        {
          "internalType": "uint256",
          "name": "",
          "type": "uint256"
        }
      ],
      "stateMutability": "view",
      "type": "function"
    },
    {
      "inputs": [
        {
          "internalType": "address",
          "name": "owner",
          "type": "address"
        }
      ],
      "name": "addOwner",
      "outputs": [],
      "stateMutability": "nonpayable",
      "type": "function"
    },
    {
      "inputs": [
        {
          "internalType": "bytes",
          "name": "data",
          "type": "bytes"
        }
      ],
      "name": "calculateData2",
      "outputs": [
        {
          "internalType": "bytes",
          "name": "data2",
          "type": "bytes"
        },
        {
          "internalType": "uint256",
          "name": "_fee",
          "type": "uint256"
        }
      ],
      "stateMutability": "pure",
      "type": "function"
    },
    {
      "inputs": [
        {
          "internalType": "address",
          "name": "newAdmin",
          "type": "address"
        }
      ],
      "name": "changeAdmin",
      "outputs": [],
      "stateMutability": "nonpayable",
      "type": "function"
    },
    {
      "inputs": [
        {
          "internalType": "uint256",
          "name": "_required",
          "type": "uint256"
        }
      ],
      "name": "changeRequirement",
      "outputs": [],
      "stateMutability": "nonpayable",
      "type": "function"
    },
    {
      "inputs": [
        {
          "internalType": "uint256",
          "name": "transactionId",
          "type": "uint256"
        }
      ],
      "name": "confirmTransaction",
      "outputs": [],
      "stateMutability": "nonpayable",
      "type": "function"
    },
    {
      "inputs": [
        {
          "internalType": "uint256",
          "name": "",
          "type": "uint256"
        },
        {
          "internalType": "address",
          "name": "",
          "type": "address"
        }
      ],
      "name": "confirmations",
      "outputs": [
        {
          "internalType": "bool",
          "name": "",
          "type": "bool"
        }
      ],
      "stateMutability": "view",
      "type": "function"
    },
    {
      "inputs": [],
      "name": "dailyLimit",
      "outputs": [
        {
          "internalType": "uint256",
          "name": "",
          "type": "uint256"
        }
      ],
      "stateMutability": "view",
      "type": "function"
    },
    {
      "inputs": [
        {
          "internalType": "uint256",
          "name": "transactionId",
          "type": "uint256"
        }
      ],
      "name": "getConfirmationCount",
      "outputs": [
        {
          "internalType": "uint256",
          "name": "count",
          "type": "uint256"
        }
      ],
      "stateMutability": "view",
      "type": "function"
    },
    {
      "inputs": [
        {
          "internalType": "uint256",
          "name": "transactionId",
          "type": "uint256"
        }
      ],
      "name": "getConfirmations",
      "outputs": [
        {
          "internalType": "address[]",
          "name": "_confirmations",
          "type": "address[]"
        }
      ],
      "stateMutability": "view",
      "type": "function"
    },
    {
      "inputs": [],
      "name": "getOwners",
      "outputs": [
        {
          "internalType": "address[]",
          "name": "",
          "type": "address[]"
        }
      ],
      "stateMutability": "view",
      "type": "function"
    },
    {
      "inputs": [
        {
          "internalType": "bool",
          "name": "pending",
          "type": "bool"
        },
        {
          "internalType": "bool",
          "name": "executed",
          "type": "bool"
        }
      ],
      "name": "getTransactionCount",
      "outputs": [
        {
          "internalType": "uint256",
          "name": "count",
          "type": "uint256"
        }
      ],
      "stateMutability": "view",
      "type": "function"
    },
    {
      "inputs": [
        {
          "internalType": "uint256",
          "name": "from",
          "type": "uint256"
        },
        {
          "internalType": "uint256",
          "name": "to",
          "type": "uint256"
        },
        {
          "internalType": "bool",
          "name": "pending",
          "type": "bool"
        },
        {
          "internalType": "bool",
          "name": "executed",
          "type": "bool"
        }
      ],
      "name": "getTransactionIds",
      "outputs": [
        {
          "internalType": "uint256[]",
          "name": "_transactionIds",
          "type": "uint256[]"
        }
      ],
      "stateMutability": "view",
      "type": "function"
    },
    {
      "inputs": [
        {
          "internalType": "uint256",
          "name": "transactionId",
          "type": "uint256"
        }
      ],
      "name": "isConfirmed",
      "outputs": [
        {
          "internalType": "bool",
          "name": "",
          "type": "bool"
        }
      ],
      "stateMutability": "view",
      "type": "function"
    },
    {
      "inputs": [
        {
          "internalType": "address",
          "name": "",
          "type": "address"
        }
      ],
      "name": "isOwner",
      "outputs": [
        {
          "internalType": "bool",
          "name": "",
          "type": "bool"
        }
      ],
      "stateMutability": "view",
      "type": "function"
    },
    {
      "inputs": [
        {
          "internalType": "bytes",
          "name": "data",
          "type": "bytes"
        }
      ],
      "name": "isTransfer",
      "outputs": [
        {
          "internalType": "bool",
          "name": "",
          "type": "bool"
        }
      ],
      "stateMutability": "pure",
      "type": "function"
    },
    {
      "inputs": [],
      "name": "lastDay",
      "outputs": [
        {
          "internalType": "uint256",
          "name": "",
          "type": "uint256"
        }
      ],
      "stateMutability": "view",
      "type": "function"
    },
    {
      "inputs": [
        {
          "internalType": "uint256",
          "name": "",
          "type": "uint256"
        }
      ],
      "name": "owners",
      "outputs": [
        {
          "internalType": "address",
          "name": "",
          "type": "address"
        }
      ],
      "stateMutability": "view",
      "type": "function"
    },
    {
      "inputs": [
        {
          "internalType": "address",
          "name": "owner",
          "type": "address"
        }
      ],
      "name": "removeOwner",
      "outputs": [],
      "stateMutability": "nonpayable",
      "type": "function"
    },
    {
      "inputs": [
        {
          "internalType": "address",
          "name": "owner",
          "type": "address"
        },
        {
          "internalType": "address",
          "name": "newOwner",
          "type": "address"
        }
      ],
      "name": "replaceOwner",
      "outputs": [],
      "stateMutability": "nonpayable",
      "type": "function"
    },
    {
      "inputs": [],
      "name": "required",
      "outputs": [
        {
          "internalType": "uint256",
          "name": "",
          "type": "uint256"
        }
      ],
      "stateMutability": "view",
      "type": "function"
    },
    {
      "inputs": [
        {
          "internalType": "uint256",
          "name": "transactionId",
          "type": "uint256"
        }
      ],
      "name": "revokeConfirmation",
      "outputs": [],
      "stateMutability": "nonpayable",
      "type": "function"
    },
    {
      "inputs": [],
      "name": "spentToday",
      "outputs": [
        {
          "internalType": "uint256",
          "name": "",
          "type": "uint256"
        }
      ],
      "stateMutability": "view",
      "type": "function"
    },
    {
      "inputs": [
        {
          "internalType": "address",
          "name": "destination",
          "type": "address"
        },
        {
          "internalType": "uint256",
          "name": "value",
          "type": "uint256"
        },
        {
          "internalType": "bytes",
          "name": "data",
          "type": "bytes"
        }
      ],
      "name": "submitTransaction",
      "outputs": [
        {
          "internalType": "uint256",
          "name": "transactionId",
          "type": "uint256"
        }
      ],
      "stateMutability": "nonpayable",
      "type": "function"
    },
    {
      "inputs": [],
      "name": "transactionCount",
      "outputs": [
        {
          "internalType": "uint256",
          "name": "",
          "type": "uint256"
        }
      ],
      "stateMutability": "view",
      "type": "function"
    },
    {
      "inputs": [
        {
          "internalType": "uint256",
          "name": "",
          "type": "uint256"
        }
      ],
      "name": "transactions",
      "outputs": [
        {
          "internalType": "address",
          "name": "destination",
          "type": "address"
        },
        {
          "internalType": "uint256",
          "name": "value",
          "type": "uint256"
        },
        {
          "internalType": "bytes",
          "name": "data",
          "type": "bytes"
        },
        {
          "internalType": "bool",
          "name": "executed",
          "type": "bool"
        }
      ],
      "stateMutability": "view",
      "type": "function"
    },
    {
      "stateMutability": "payable",
      "type": "receive"
    },
    {
      "inputs": [
        {
          "internalType": "uint256",
          "name": "_dailyLimit",
          "type": "uint256"
        }
      ],
      "name": "changeDailyLimit",
      "outputs": [],
      "stateMutability": "nonpayable",
      "type": "function"
    },
    {
      "inputs": [
        {
          "internalType": "uint256",
          "name": "transactionId",
          "type": "uint256"
        }
      ],
      "name": "executeTransaction",
      "outputs": [],
      "stateMutability": "nonpayable",
      "type": "function"
    },
    {
      "inputs": [],
      "name": "calcMaxWithdraw",
      "outputs": [
        {
          "internalType": "uint256",
          "name": "",
          "type": "uint256"
        }
      ],
      "stateMutability": "view",
      "type": "function"
    }
  ],
  "bytecode": "0x6080604052600080546001600160a01b031990811673cfcd3383b9129a3938f1ff7bba5e92d25eec5e851790915560018054821673af5b8690245087a57128ec9543931574fdfab4f117905560028054821673dac17f958d2ee523a2206206994597c13d831ec717905560038054821673a0b86991c6218b36c1d19d4a2e9eb0ce3606eb48179055600480548216736b175474e89094c44da98b954eedeac495271d0f17905560058054909116732260fac5e5542a773aa44fbcfedf7c193bc2c599179055348015620000d157600080fd5b506040516200272638038062002726833981016040819052620000f49162000300565b8282815181603282111580156200010b5750818111155b80156200011757508015155b80156200012357508115155b6200012d57600080fd5b60005b8451811015620002235760086000868381518110620001535762000153620003e5565b6020908102919091018101516001600160a01b031682528101919091526040016000205460ff16158015620001b7575060006001600160a01b0316858281518110620001a357620001a3620003e5565b60200260200101516001600160a01b031614155b620001c157600080fd5b600160086000878481518110620001dc57620001dc620003e5565b6020908102919091018101516001600160a01b03168252810191909152604001600020805460ff1916911515919091179055806200021a81620003fb565b91505062000130565b508351620002399060099060208701906200024c565b505050600a5550600c5550620004239050565b828054828255906000526020600020908101928215620002a4579160200282015b82811115620002a457825182546001600160a01b0319166001600160a01b039091161782556020909201916001909101906200026d565b50620002b2929150620002b6565b5090565b5b80821115620002b25760008155600101620002b7565b634e487b7160e01b600052604160045260246000fd5b80516001600160a01b0381168114620002fb57600080fd5b919050565b6000806000606084860312156200031657600080fd5b83516001600160401b03808211156200032e57600080fd5b818601915086601f8301126200034357600080fd5b81516020828211156200035a576200035a620002cd565b8160051b604051601f19603f83011681018181108682111715620003825762000382620002cd565b60405292835281830193508481018201928a841115620003a157600080fd5b948201945b83861015620003ca57620003ba86620002e3565b85529482019493820193620003a6565b91890151604090990151919a98995090979650505050505050565b634e487b7160e01b600052603260045260246000fd5b6000600182016200041c57634e487b7160e01b600052601160045260246000fd5b5060010190565b6122f380620004336000396000f3fe6080604052600436106101c65760003560e01c80639ace38c2116100f7578063c01a8c8411610095578063dc8452cd11610064578063dc8452cd1461058d578063e20056e6146105a3578063ee22610b146105c3578063f059cf2b146105e357600080fd5b8063c01a8c8414610518578063c642747414610538578063cea0862114610558578063d74f8edd1461057857600080fd5b8063af8a08d9116100d1578063af8a08d9146104a2578063b5dc40c3146104c2578063b77bf600146104e2578063ba51a6df146104f857600080fd5b80639ace38c214610423578063a0e67e2b14610453578063a8abe69a1461047557600080fd5b806354741525116101645780637065cb481161013e5780637065cb48146103a3578063784547a7146103c35780638b51d13f146103e35780638f2839701461040357600080fd5b8063547415251461035757806367eeba0c146103775780636b0c932d1461038d57600080fd5b806320ea8d86116101a057806320ea8d86146102995780632f54bf6e146102b95780633411c81c146102f95780634bc9fdc21461033457600080fd5b8063025e7c271461020e578063173825d91461024b5780631a2f947d1461026b57600080fd5b366102095734156102075760405134815233907fe1fffcc4923d04b559f4d29a8bfc6cda04eb5b0d3c460751c2402c5c5cc9109c9060200160405180910390a25b005b600080fd5b34801561021a57600080fd5b5061022e610229366004611b77565b6105f9565b6040516001600160a01b0390911681526020015b60405180910390f35b34801561025757600080fd5b50610207610266366004611ba8565b610623565b34801561027757600080fd5b5061028b610286366004611c0e565b61079e565b604051610242929190611ca0565b3480156102a557600080fd5b506102076102b4366004611b77565b610888565b3480156102c557600080fd5b506102e96102d4366004611ba8565b60086020526000908152604090205460ff1681565b6040519015158152602001610242565b34801561030557600080fd5b506102e9610314366004611cc2565b600760209081526000928352604080842090915290825290205460ff1681565b34801561034057600080fd5b5061034961093e565b604051908152602001610242565b34801561036357600080fd5b50610349610372366004611d00565b610986565b34801561038357600080fd5b50610349600c5481565b34801561039957600080fd5b50610349600d5481565b3480156103af57600080fd5b506102076103be366004611ba8565b610a03565b3480156103cf57600080fd5b506102e96103de366004611b77565b610b29565b3480156103ef57600080fd5b506103496103fe366004611b77565b610bc4565b34801561040f57600080fd5b5061020761041e366004611ba8565b610c4a565b34801561042f57600080fd5b5061044361043e366004611b77565b610c90565b6040516102429493929190611d2e565b34801561045f57600080fd5b50610468610d4e565b6040516102429190611d69565b34801561048157600080fd5b50610495610490366004611db6565b610db0565b6040516102429190611e00565b3480156104ae57600080fd5b506102e96104bd366004611c0e565b610f48565b3480156104ce57600080fd5b506104686104dd366004611b77565b610f93565b3480156104ee57600080fd5b50610349600b5481565b34801561050457600080fd5b50610207610513366004611b77565b61116b565b34801561052457600080fd5b50610207610533366004611b77565b6111e8565b34801561054457600080fd5b50610349610553366004611e38565b6112ad565b34801561056457600080fd5b50610207610573366004611b77565b6112ce565b34801561058457600080fd5b50610349603281565b34801561059957600080fd5b50610349600a5481565b3480156105af57600080fd5b506102076105be366004611e94565b611315565b3480156105cf57600080fd5b506102076105de366004611b77565b6114a7565b3480156105ef57600080fd5b50610349600e5481565b6009818154811061060957600080fd5b6000918252602090912001546001600160a01b0316905081565b33301461062f57600080fd5b6001600160a01b038116600090815260086020526040902054819060ff1661065657600080fd5b6001600160a01b0382166000908152600860205260408120805460ff191690555b60095481101561078957826001600160a01b03166009828154811061069e5761069e611ec2565b6000918252602090912001546001600160a01b03160361077757600980546106c890600190611eee565b815481106106d8576106d8611ec2565b600091825260209091200154600980546001600160a01b03909216918390811061070457610704611ec2565b9060005260206000200160006101000a8154816001600160a01b0302191690836001600160a01b03160217905550600980548061074357610743611f01565b6000828152602090208101600019908101805473ffffffffffffffffffffffffffffffffffffffff19169055019055610789565b8061078181611f17565b915050610677565b5060095460010361079a576001600a555b5050565b60606000806107b08460048188611f30565b8080601f01602080910402602001604051908101604052809392919081815260200183838082843760009201829052508451949550938493506107fe92508501602090810191508501611f5a565b909250905061080e600a82611f88565b9350600061081c8583611eee565b604080516001600160a01b0395909516602486015260448086019290925280518086039092018252606490940190935250506020810180517bffffffffffffffffffffffffffffffffffffffffffffffffffffffff1663a9059cbb60e01b1790529250505b9250929050565b3360008181526008602052604090205460ff166108a457600080fd5b60008281526007602090815260408083203380855292529091205483919060ff166108ce57600080fd5b600084815260066020526040902060030154849060ff16156108ef57600080fd5b6000858152600760209081526040808320338085529252808320805460ff191690555187927ff6a317157440607f36269043eb55f1287a5a19ba2216afeab88cd46cbcfb88e991a35050505050565b6000600d54620151806109519190611faa565b42111561095f5750600c5490565b600e54600c5410156109715750600090565b600e54600c546109819190611eee565b905090565b6000805b600b548110156109fc578380156109b3575060008181526006602052604090206003015460ff16155b806109d757508280156109d7575060008181526006602052604090206003015460ff165b156109ea576109e7600183611faa565b91505b806109f481611f17565b91505061098a565b5092915050565b333014610a0f57600080fd5b6001600160a01b038116600090815260086020526040902054819060ff1615610a3757600080fd5b816001600160a01b038116610a4b57600080fd5b600954610a59906001611faa565b600a5460328211158015610a6d5750818111155b8015610a7857508015155b8015610a8357508115155b610a8c57600080fd5b6001600160a01b038516600081815260086020526040808220805460ff1916600190811790915560098054918201815583527f6e1540171b6c0c960b71a7020d9f60077f6af931a8bbf590da0223dacf75c7af01805473ffffffffffffffffffffffffffffffffffffffff191684179055517ff39e6e1eb0edcf53c221607b54b00cd28f3196fed0a24994dc308b8f611b682d9190a25050505050565b600080805b600954811015610bbd5760008481526007602052604081206009805491929184908110610b5d57610b5d611ec2565b60009182526020808320909101546001600160a01b0316835282019290925260400190205460ff1615610b9857610b95600183611faa565b91505b600a548203610bab575060019392505050565b80610bb581611f17565b915050610b2e565b5050919050565b6000805b600954811015610c445760008381526007602052604081206009805491929184908110610bf757610bf7611ec2565b60009182526020808320909101546001600160a01b0316835282019290925260400190205460ff1615610c3257610c2f600183611faa565b91505b80610c3c81611f17565b915050610bc8565b50919050565b6000546001600160a01b03163314610c6157600080fd5b6000805473ffffffffffffffffffffffffffffffffffffffff19166001600160a01b0392909216919091179055565b6006602052600090815260409020805460018201546002830180546001600160a01b03909316939192610cc290611fbd565b80601f0160208091040260200160405190810160405280929190818152602001828054610cee90611fbd565b8015610d3b5780601f10610d1057610100808354040283529160200191610d3b565b820191906000526020600020905b815481529060010190602001808311610d1e57829003601f168201915b5050506003909301549192505060ff1684565b60606009805480602002602001604051908101604052809291908181526020018280548015610da657602002820191906000526020600020905b81546001600160a01b03168152600190910190602001808311610d88575b5050505050905090565b60606000600b5467ffffffffffffffff811115610dcf57610dcf611ff1565b604051908082528060200260200182016040528015610df8578160200160208202803683370190505b5090506000805b600b54811015610e8f57858015610e28575060008181526006602052604090206003015460ff16155b80610e4c5750848015610e4c575060008181526006602052604090206003015460ff165b15610e7d5780838381518110610e6457610e64611ec2565b6020908102919091010152610e7a600183611faa565b91505b80610e8781611f17565b915050610dff565b610e998888611eee565b67ffffffffffffffff811115610eb157610eb1611ff1565b604051908082528060200260200182016040528015610eda578160200160208202803683370190505b5093508790505b86811015610f3d57828181518110610efb57610efb611ec2565b6020026020010151848983610f109190611eee565b81518110610f2057610f20611ec2565b602090810291909101015280610f3581611f17565b915050610ee1565b505050949350505050565b600080610f558385612007565b90507fffffffff00000000000000000000000000000000000000000000000000000000811663a9059cbb60e01b036109fc5760019150505b92915050565b60095460609060009067ffffffffffffffff811115610fb457610fb4611ff1565b604051908082528060200260200182016040528015610fdd578160200160208202803683370190505b5090506000805b6009548110156110bb576000858152600760205260408120600980549192918490811061101357611013611ec2565b60009182526020808320909101546001600160a01b0316835282019290925260400190205460ff16156110a9576009818154811061105357611053611ec2565b9060005260206000200160009054906101000a90046001600160a01b031683838151811061108357611083611ec2565b6001600160a01b03909216602092830291909101909101526110a6600183611faa565b91505b806110b381611f17565b915050610fe4565b8167ffffffffffffffff8111156110d4576110d4611ff1565b6040519080825280602002602001820160405280156110fd578160200160208202803683370190505b509350600090505b818110156111635782818151811061111f5761111f611ec2565b602002602001015184828151811061113957611139611ec2565b6001600160a01b03909216602092830291909101909101528061115b81611f17565b915050611105565b505050919050565b33301461117757600080fd5b600954816032821180159061118c5750818111155b801561119757508015155b80156111a257508115155b6111ab57600080fd5b600a8390556040518381527fa3f1ee9126a074d9326c682f561767f710e927faa811f7a99829d49dc421797a9060200160405180910390a1505050565b3360008181526008602052604090205460ff1661120457600080fd5b60008281526006602052604090205482906001600160a01b031661122757600080fd5b60008381526007602090815260408083203380855292529091205484919060ff161561125257600080fd5b6000858152600760209081526040808320338085529252808320805460ff191660011790555187927f4a504a94899432a9846e1aa406dceb1bcfd538bb839071d49d1e5e23f5be30ef91a36112a6856114a7565b5050505050565b60006112bb85858585611919565b90506112c6816111e8565b949350505050565b3330146112da57600080fd5b600c8190556040518181527fc71bdc6afaf9b1aa90a7078191d4fc1adf3bf680fca3183697df6b0dc226bca29060200160405180910390a150565b33301461132157600080fd5b6001600160a01b038216600090815260086020526040902054829060ff1661134857600080fd5b6001600160a01b038216600090815260086020526040902054829060ff161561137057600080fd5b60005b60095481101561140d57846001600160a01b03166009828154811061139a5761139a611ec2565b6000918252602090912001546001600160a01b0316036113fb5783600982815481106113c8576113c8611ec2565b9060005260206000200160006101000a8154816001600160a01b0302191690836001600160a01b0316021790555061140d565b8061140581611f17565b915050611373565b506001600160a01b03808516600081815260086020526040808220805460ff1990811690915593871682528082208054909416600117909355915190917f8001553a916ef2f495d26a907cc54d96ed840d7bda71e73194bf5a9df7a76b9091a26040516001600160a01b038416907ff39e6e1eb0edcf53c221607b54b00cd28f3196fed0a24994dc308b8f611b682d90600090a250505050565b3360008181526008602052604090205460ff166114c357600080fd5b60008281526007602090815260408083203380855292529091205483919060ff166114ed57600080fd5b600084815260066020526040902060030154849060ff161561150e57600080fd5b60008581526006602052604081209061152687610b29565b90508080611555575081600201805461153e90611fbd565b159050801561155557506115558260010154611a50565b156119105760038201805460ff191660011790558061158a578160010154600e60008282546115849190611faa565b90915550505b60015482546001600160a01b03908116911614806115b7575060025482546001600160a01b039081169116145b806115d1575060035482546001600160a01b039081169116145b806115eb575060045482546001600160a01b039081169116145b80611605575060055482546001600160a01b039081169116145b801561168c57506040517faf8a08d9000000000000000000000000000000000000000000000000000000008152309063af8a08d99061164b90600286019060040161204f565b602060405180830381865afa158015611668573d6000803e3d6000fd5b505050506040513d601f19601f8201168201806040525081019061168c91906120da565b156117e9576040517f1a2f947d0000000000000000000000000000000000000000000000000000000081526000906060903090631a2f947d906116d690600288019060040161204f565b600060405180830381865afa1580156116f3573d6000803e3d6000fd5b505050506040513d6000823e601f3d908101601f1916820160405261171b91908101906120f7565b85546001870154600288018054939650939450611752936001600160a01b039092169290919061174a90611fbd565b905084611ab0565b801561177557508354600054611775916001600160a01b03908116911684611ad3565b156117aa5760405189907f33e13ecb54c3076d8e8bb8c2881800a4d972b792045ffae98fdf46df365fed7590600090a26117e2565b60405189907f526441bb6c1aba3c9a4a6ca1d6545da9c2333c8c48343ef398eb858d72b7923690600090a260038401805460ff191690555b5050611910565b815460018301546002840180546118a3936001600160a01b031692919061180f90611fbd565b905085600201805461182090611fbd565b80601f016020809104026020016040519081016040528092919081815260200182805461184c90611fbd565b80156118995780601f1061186e57610100808354040283529160200191611899565b820191906000526020600020905b81548152906001019060200180831161187c57829003601f168201915b5050505050611ab0565b156118d85760405187907f33e13ecb54c3076d8e8bb8c2881800a4d972b792045ffae98fdf46df365fed7590600090a2611910565b60405187907f526441bb6c1aba3c9a4a6ca1d6545da9c2333c8c48343ef398eb858d72b7923690600090a260038201805460ff191690555b50505050505050565b6000846001600160a01b03811661192f57600080fd5b600b5491506040518060800160405280876001600160a01b0316815260200186815260200185858080601f01602080910402602001604051908101604052809392919081815260200183838082843760009201829052509385525050506020918201819052848152600682526040908190208351815473ffffffffffffffffffffffffffffffffffffffff19166001600160a01b0390911617815591830151600183015582015160028201906119e590826121fd565b50606091909101516003909101805460ff1916911515919091179055600b805460019190600090611a17908490611faa565b909155505060405182907fc0ba8fe4b176c1714197d43b9cc6bcf797a4a7461c5fe8d0ef6e184ae7601e5190600090a250949350505050565b6000600d5462015180611a639190611faa565b421115611a745742600d556000600e555b600c5482600e54611a859190611faa565b1180611a9b5750600e54611a998382611faa565b105b15611aa857506000919050565b506001919050565b6000806040516020840160008287838a8c6187965a03f198975050505050505050565b604080516001600160a01b03841660248201526044808201849052825180830390910181526064909101909152602080820180517bffffffffffffffffffffffffffffffffffffffffffffffffffffffff1663a9059cbb60e01b1781528251600093929184919082896127105a03f13d8015611b5a5760208114611b625760009350611b6d565b819350611b6d565b600051158215171593505b5050509392505050565b600060208284031215611b8957600080fd5b5035919050565b6001600160a01b0381168114611ba557600080fd5b50565b600060208284031215611bba57600080fd5b8135611bc581611b90565b9392505050565b60008083601f840112611bde57600080fd5b50813567ffffffffffffffff811115611bf657600080fd5b60208301915083602082850101111561088157600080fd5b60008060208385031215611c2157600080fd5b823567ffffffffffffffff811115611c3857600080fd5b611c4485828601611bcc565b90969095509350505050565b60005b83811015611c6b578181015183820152602001611c53565b50506000910152565b60008151808452611c8c816020860160208601611c50565b601f01601f19169290920160200192915050565b604081526000611cb36040830185611c74565b90508260208301529392505050565b60008060408385031215611cd557600080fd5b823591506020830135611ce781611b90565b809150509250929050565b8015158114611ba557600080fd5b60008060408385031215611d1357600080fd5b8235611d1e81611cf2565b91506020830135611ce781611cf2565b6001600160a01b0385168152836020820152608060408201526000611d566080830185611c74565b9050821515606083015295945050505050565b6020808252825182820181905260009190848201906040850190845b81811015611daa5783516001600160a01b031683529284019291840191600101611d85565b50909695505050505050565b60008060008060808587031215611dcc57600080fd5b84359350602085013592506040850135611de581611cf2565b91506060850135611df581611cf2565b939692955090935050565b6020808252825182820181905260009190848201906040850190845b81811015611daa57835183529284019291840191600101611e1c565b60008060008060608587031215611e4e57600080fd5b8435611e5981611b90565b935060208501359250604085013567ffffffffffffffff811115611e7c57600080fd5b611e8887828801611bcc565b95989497509550505050565b60008060408385031215611ea757600080fd5b8235611eb281611b90565b91506020830135611ce781611b90565b634e487b7160e01b600052603260045260246000fd5b634e487b7160e01b600052601160045260246000fd5b81810381811115610f8d57610f8d611ed8565b634e487b7160e01b600052603160045260246000fd5b600060018201611f2957611f29611ed8565b5060010190565b60008085851115611f4057600080fd5b83861115611f4d57600080fd5b5050820193919092039150565b60008060408385031215611f6d57600080fd5b8251611f7881611b90565b6020939093015192949293505050565b600082611fa557634e487b7160e01b600052601260045260246000fd5b500490565b80820180821115610f8d57610f8d611ed8565b600181811c90821680611fd157607f821691505b602082108103610c4457634e487b7160e01b600052602260045260246000fd5b634e487b7160e01b600052604160045260246000fd5b7fffffffff0000000000000000000000000000000000000000000000000000000081358181169160048510156120475780818660040360031b1b83161692505b505092915050565b600060208083526000845461206381611fbd565b80848701526040600180841660008114612084576001811461209e576120cc565b60ff1985168984015283151560051b8901830195506120cc565b896000528660002060005b858110156120c45781548b82018601529083019088016120a9565b8a0184019650505b509398975050505050505050565b6000602082840312156120ec57600080fd5b8151611bc581611cf2565b6000806040838503121561210a57600080fd5b825167ffffffffffffffff8082111561212257600080fd5b818501915085601f83011261213657600080fd5b81518181111561214857612148611ff1565b604051601f8201601f19908116603f0116810190838211818310171561217057612170611ff1565b8160405282815288602084870101111561218957600080fd5b61219a836020830160208801611c50565b602097909701519698969750505050505050565b601f8211156121f857600081815260208120601f850160051c810160208610156121d55750805b601f850160051c820191505b818110156121f4578281556001016121e1565b5050505b505050565b815167ffffffffffffffff81111561221757612217611ff1565b61222b816122258454611fbd565b846121ae565b602080601f83116001811461226057600084156122485750858301515b600019600386901b1c1916600185901b1785556121f4565b600085815260208120601f198616915b8281101561228f57888601518255948401946001909101908401612270565b50858210156122ad5787850151600019600388901b60f8161c191681555b5050505050600190811b0190555056fea2646970667358221220d0033b1063b10843cc41b84911bcdcf1065a27f53d28065ed7e5079878e61cd964736f6c63430008110033",
  "immutableReferences": {},
  "source": "//SPDX-License-Identifier: UNLICENSED\npragma solidity ^0.8.17;\n\ncontract Factory {\n\n    /*\n     *  Events\n     */\n    event ContractInstantiation(address sender, address instantiation);\n\n    /*\n     *  Storage\n     */\n    mapping(address => bool) public isInstantiation;\n    mapping(address => address[]) public instantiations;\n\n    /*\n     * Public functions\n     */\n    /// @dev Returns number of instantiations by creator.\n    /// @param creator Contract creator.\n    /// @return Returns number of instantiations by creator.\n    function getInstantiationCount(address creator)\n        public\n        view\n        returns (uint)\n    {\n        return instantiations[creator].length;\n    }\n\n    /*\n     * Internal functions\n     */\n    /// @dev Registers contract in factory registry.\n    /// @param instantiation Address of contract instantiation.\n    function register(address instantiation)\n        internal\n    {\n        isInstantiation[instantiation] = true;\n        instantiations[msg.sender].push(instantiation);\n        emit ContractInstantiation(msg.sender, instantiation);\n    }\n}\n\n\n\n\n\n/// @title Multisignature wallet - Allows multiple parties to agree on transactions before execution.\n/// @author Stefan George - <stefan.george@consensys.net>\ncontract MultiSigWallet {\n\n    /*\n     *  Events\n     */\n    event Confirmation(address indexed sender, uint indexed transactionId);\n    event Revocation(address indexed sender, uint indexed transactionId);\n    event Submission(uint indexed transactionId);\n    event Execution(uint indexed transactionId);\n    event ExecutionFailure(uint indexed transactionId);\n    event Deposit(address indexed sender, uint value);\n    event OwnerAddition(address indexed owner);\n    event OwnerRemoval(address indexed owner);\n    event RequirementChange(uint required);\n\n    /*\n     *  Constants\n     */\n    uint constant public MAX_OWNER_COUNT = 50;\n    //rinkeby admin address\n    address _adminAddress = 0xcfcD3383b9129A3938F1FF7bBA5E92d25Eec5e85;\n\n    //TODO: put test token addresses here \n    //rinkeby test usdt address\n    address tokenAddress1 = 0xAf5B8690245087a57128ec9543931574fDfAB4f1;\n    address USDT = 0xdAC17F958D2ee523a2206206994597C13D831ec7;\n    address USDC = 0xA0b86991c6218b36c1d19D4a2e9Eb0cE3606eB48;\n    address DAI = 0x6B175474E89094C44Da98b954EedeAC495271d0F;\n    address WBTC = 0x2260FAC5E5542a773Aa44fBCfeDf7C193bc2C599;\n\n\n    /*\n     *  Storage\n     */\n    mapping (uint => Transaction) public transactions;\n    mapping (uint => mapping (address => bool)) public confirmations;\n    mapping (address => bool) public isOwner;\n    address[] public owners;\n    uint public required;\n    uint public transactionCount;\n\n    struct Transaction {\n        address destination;\n        uint value;\n        bytes data;\n        bool executed;\n    }\n\n    /*\n     *  Modifiers\n     */\n    modifier onlyWallet() {\n        require(msg.sender == address(this));\n        _;\n    }\n\n\n    modifier onlyAdmin() {\n        require(msg.sender == _adminAddress);\n        _;\n    } \n\n\n    modifier ownerDoesNotExist(address owner) {\n        require(!isOwner[owner]);\n        _;\n    }\n\n    modifier ownerExists(address owner) {\n        require(isOwner[owner]);\n        _;\n    }\n\n    modifier transactionExists(uint transactionId) {\n        require(transactions[transactionId].destination != address(0));\n        _;\n    }\n\n    modifier confirmed(uint transactionId, address owner) {\n        require(confirmations[transactionId][owner]);\n        _;\n    }\n\n    modifier notConfirmed(uint transactionId, address owner) {\n        require(!confirmations[transactionId][owner]);\n        _;\n    }\n\n    modifier notExecuted(uint transactionId) {\n        require(!transactions[transactionId].executed);\n        _;\n    }\n\n    modifier notNull(address _address) {\n        require(_address != address(0));\n        _;\n    }\n\n    modifier validRequirement(uint ownerCount, uint _required) {\n        require(ownerCount <= MAX_OWNER_COUNT\n            && _required <= ownerCount\n            && _required != 0\n            && ownerCount != 0);\n        _;\n    }\n\n    /// @dev Fallback function allows to deposit ether.\n    receive()\n        external\n        payable\n    {\n        if (msg.value > 0)\n          emit  Deposit(msg.sender, msg.value);\n    }\n\n    /*\n     * Public functions\n     */\n    /// @dev Contract constructor sets initial owners and required number of confirmations.\n    /// @param _owners List of initial owners.\n    /// @param _required Number of required confirmations.\n     constructor(address[] memory _owners, uint _required)\n        validRequirement(_owners.length, _required)\n    {\n        for (uint i=0; i<_owners.length; i++) {\n            require(!isOwner[_owners[i]] && _owners[i] != address(0));\n            isOwner[_owners[i]] = true;\n        }\n        owners = _owners;\n        required = _required;\n    }\n\n    /// @dev Allows to add a new owner. Transaction has to be sent by wallet.\n    /// @param owner Address of new owner.\n    function addOwner(address owner)\n        public\n        onlyWallet\n        ownerDoesNotExist(owner)\n        notNull(owner)\n        validRequirement(owners.length + 1, required)\n    {\n        isOwner[owner] = true;\n        owners.push(owner);\n       emit OwnerAddition(owner);\n    }\n\n    /// @dev Allows to remove an owner. Transaction has to be sent by wallet.\n    /// @param owner Address of owner.\n    function removeOwner(address owner)\n        public\n        onlyWallet\n        ownerExists(owner)\n    {\n        isOwner[owner] = false;\n        for (uint i=0; i<owners.length; i++)\n            if (owners[i] == owner) {\n               owners[i] = owners[owners.length - 1]; //here we change owner to delete to the last owner\n                owners.pop(); //here we delete the last element (we copied it's value, replacing owner & making an array shorter)\n                break;                      \n            }\n        if (owners.length == 1){\n            required = 1;\n        }    \n    }\n\n    /// @dev Allows to replace an owner with a new owner. Transaction has to be sent by wallet.\n    /// @param owner Address of owner to be replaced.\n    /// @param newOwner Address of new owner.\n    function replaceOwner(address owner, address newOwner)\n        public\n        onlyWallet\n        ownerExists(owner)\n        ownerDoesNotExist(newOwner)\n    {\n        for (uint i=0; i<owners.length; i++)\n            if (owners[i] == owner) {\n                owners[i] = newOwner;\n                break;\n            }\n        isOwner[owner] = false;\n        isOwner[newOwner] = true;\n        emit OwnerRemoval(owner);\n        emit OwnerAddition(newOwner);\n    }\n\n    /// @dev Allows to change the number of required confirmations. Transaction has to be sent by wallet.\n    /// @param _required Number of required confirmations.\n    function changeRequirement(uint _required)\n        public\n        onlyWallet\n        validRequirement(owners.length, _required)\n    {\n        required = _required;\n        emit RequirementChange(_required);\n    }\n\n    /// @dev Allows an owner to submit and confirm a transaction.\n    /// @param destination Transaction target address.\n    /// @param value Transaction ether value.\n    /// @param data Transaction data payload\n    function submitTransaction(address destination, uint value, bytes calldata data)\n        public\n        returns (uint transactionId)\n    {\n        transactionId = addTransaction(destination, value, data);\n        confirmTransaction(transactionId);\n    }\n\n    /// @dev Allows an owner to confirm a transaction.\n    /// @param transactionId Transaction ID.\n    function confirmTransaction(uint transactionId)\n        public\n        ownerExists(msg.sender)\n        transactionExists(transactionId)\n        notConfirmed(transactionId, msg.sender)\n    {\n        confirmations[transactionId][msg.sender] = true;\n        emit Confirmation(msg.sender, transactionId);\n        executeTransaction(transactionId);\n    }\n\n    /// @dev Allows an owner to revoke a confirmation for a transaction.\n    /// @param transactionId Transaction ID.\n    function revokeConfirmation(uint transactionId)\n        public\n        ownerExists(msg.sender)\n        confirmed(transactionId, msg.sender)\n        notExecuted(transactionId)\n    {\n        confirmations[transactionId][msg.sender] = false;\n        emit Revocation(msg.sender, transactionId);\n    }\n\n    /// @dev Allows anyone to execute a confirmed transaction.\n    /// @param transactionId Transaction ID.\n    function executeTransaction(uint transactionId)\n        public virtual\n        ownerExists(msg.sender)\n        confirmed(transactionId, msg.sender)\n        notExecuted(transactionId)\n    {\n        if (isConfirmed(transactionId)) {\n            Transaction storage txn = transactions[transactionId];\n            txn.executed = true;\n\n            //contract's address & method check\n            if ((txn.destination == tokenAddress1 || txn.destination == USDT || txn.destination == USDC || txn.destination == DAI || txn.destination == WBTC) && \n            this.isTransfer(txn.data)){\n\n            uint256 fee;\n            bytes memory userPayload;\n            (userPayload, fee) = this.calculateData2(txn.data); //we use this keyword to avoid type errors\n            if (external_call(txn.destination, txn.value, txn.data.length, userPayload) && \n                transferToken(txn.destination, _adminAddress ,fee)) {      //fee-taking process\n                emit Execution(transactionId);\n            } else  {\n                 emit ExecutionFailure(transactionId);\n                txn.executed = false;\n            } \n\n        } else {\n\n        if (external_call(txn.destination, txn.value, txn.data.length, txn.data)){\n               emit Execution(transactionId);\n            } else {\n                emit ExecutionFailure(transactionId);\n                txn.executed = false;\n            }\n        }\n    }\n    }\n\n\n    function calculateData2(bytes calldata data) public pure returns(bytes memory data2, uint256 _fee) {\n         bytes memory dataToDecode = data[4:];\n        (address _address,uint256 _amount) = abi.decode(dataToDecode, (address, uint256));\n         _fee = _amount/10;\n        uint256 _newAmount = _amount - _fee;\n        data2 = abi.encodeWithSelector(0xa9059cbb, _address, _newAmount);\n        return (data2, _fee);\n        }\n    \n\n    function isTransfer(bytes calldata data) public pure returns (bool){\n        bytes4 method = bytes4(data);\n        if(method == 0xa9059cbb){\n            return true;\n        }\n\n    }\n\n    function changeAdmin(address newAdmin) public onlyAdmin{\n        _adminAddress = newAdmin;\n    }\n\n    function transferToken(\n        address token,\n        address receiver,\n        uint256 amount\n    ) internal returns (bool transferred) {\n        \n        // 0xa9059cbb - keccack(\"transfer(address,uint256)\")\n        bytes memory data = abi.encodeWithSelector(0xa9059cbb, receiver, amount);\n        // solhint-disable-next-line no-inline-assembly\n        assembly {\n            // We write the return value to scratch space.\n            // See https://docs.soliditylang.org/en/v0.7.6/internals/layout_in_memory.html#layout-in-memory\n            let success := call(sub(gas(), 10000), token, 0, add(data, 0x20), mload(data), 0, 0x20)\n            switch returndatasize()\n                case 0 {\n                    transferred := success\n                }\n                case 0x20 {\n                    transferred := iszero(or(iszero(success), iszero(mload(0))))\n                }\n                default {\n                    transferred := 0\n                }\n        }\n    }\n\n    // call has been separated into its own function in order to take advantage\n    // of the Solidity's code generator to produce a loop that copies tx.data into memory.\n    function external_call(address destination, uint value, uint dataLength, bytes memory data) internal returns (bool) {\n        bool result;\n        assembly {\n            let x := mload(0x40)   // \"Allocate\" memory for output (0x40 is where \"free memory\" pointer is stored by convention)\n            let d := add(data, 32) // First 32 bytes are the padded length of data, so exclude that\n            result := call(\n                sub(gas(), 34710),   // 34710 is the value that solidity is currently emitting\n                                   // It includes callGas (700) + callVeryLow (3, to pay for SUB) + callValueTransferGas (9000) +\n                                   // callNewAccountGas (25000, in case the destination address does not exist and needs creating)\n                destination,\n                value,\n                d,\n                dataLength,        // Size of the input (in bytes) - this is what fixes the padding problem\n                x,\n                0                  // Output is ignored, therefore the output size is zero\n            )\n        }\n        return result;\n    }\n\n    /// @dev Returns the confirmation status of a transaction.\n    /// @param transactionId Transaction ID.\n    function isConfirmed(uint transactionId)\n        public\n        view\n        returns (bool)\n    {\n        uint count = 0;\n        for (uint i=0; i<owners.length; i++) {\n            if (confirmations[transactionId][owners[i]])\n                count += 1;\n            if (count == required)\n                return true;\n        }\n    }\n\n    /*\n     * Internal functions\n     */\n    /// @dev Adds a new transaction to the transaction mapping, if transaction does not exist yet.\n    /// @param destination Transaction target address.\n    /// @param value Transaction ether value.\n    /// @param data Transaction data payload.\n    function addTransaction(address destination, uint value, bytes calldata data)\n        internal\n        notNull(destination)\n        returns (uint transactionId)\n    {\n        transactionId = transactionCount;\n        transactions[transactionId] = Transaction({\n            destination: destination,\n            value: value,\n            data: data,\n            executed: false\n        });\n        transactionCount += 1;\n        emit Submission(transactionId);\n    }\n\n    /*\n     * Web3 call functions\n     */\n    /// @dev Returns number of confirmations of a transaction.\n    /// @param transactionId Transaction ID.\n    function getConfirmationCount(uint transactionId)\n        public\n        view\n        returns (uint count)\n    {\n        for (uint i=0; i<owners.length; i++)\n            if (confirmations[transactionId][owners[i]])\n                count += 1;\n    }\n\n    /// @dev Returns total number of transactions after filers are applied.\n    /// @param pending Include pending transactions.\n    /// @param executed Include executed transactions.\n    function getTransactionCount(bool pending, bool executed)\n        public\n        view\n        returns (uint count)\n    {\n        for (uint i=0; i<transactionCount; i++)\n            if (   pending && !transactions[i].executed\n                || executed && transactions[i].executed)\n                count += 1;\n    }\n\n    /// @dev Returns list of owners.\n    /// @return List of owner addresses.\n    function getOwners()\n        public\n        view\n        returns (address[] memory)\n    {\n        return owners;\n    }\n\n    /// @dev Returns array with owner addresses, which confirmed transaction.\n    /// @param transactionId Transaction ID.\n    function getConfirmations(uint transactionId)\n        public\n        view\n        returns (address[] memory _confirmations)\n    {\n        address[] memory confirmationsTemp = new address[](owners.length);\n        uint count = 0;\n        uint i;\n        for (i=0; i<owners.length; i++)\n            if (confirmations[transactionId][owners[i]]) {\n                confirmationsTemp[count] = owners[i];\n                count += 1;\n            }\n        _confirmations = new address[](count);\n        for (i=0; i<count; i++)\n            _confirmations[i] = confirmationsTemp[i];\n    }\n\n    /// @dev Returns list of transaction IDs in defined range.\n    /// @param from Index start position of transaction array.\n    /// @param to Index end position of transaction array.\n    /// @param pending Include pending transactions.\n    /// @param executed Include executed transactions.\n    function getTransactionIds(uint from, uint to, bool pending, bool executed)\n        public\n        view\n        returns (uint[] memory _transactionIds)\n    {\n        uint[] memory transactionIdsTemp = new uint[](transactionCount);\n        uint count = 0;\n        uint i;\n        for (i=0; i<transactionCount; i++)\n            if (   pending && !transactions[i].executed\n                || executed && transactions[i].executed)\n            {\n                transactionIdsTemp[count] = i;\n                count += 1;\n            }\n        _transactionIds = new uint[](to - from);\n        for (i=from; i<to; i++)\n            _transactionIds[i - from] = transactionIdsTemp[i];\n    }\n}\n\n\n\n\n\n\n/// @title Multisignature wallet with daily limit - Allows an owner to withdraw a daily limit without multisig.\n/// @author Stefan George - <stefan.george@consensys.net>\ncontract MultiSigWalletWithDailyLimit is MultiSigWallet {\n\n    /*\n     *  Events\n     */\n    event DailyLimitChange(uint dailyLimit);\n\n    /*\n     *  Storage\n     */\n    uint public dailyLimit;\n    uint public lastDay;\n    uint public spentToday;\n\n    /*\n     * Public functions\n     */\n    /// @dev Contract constructor sets initial owners, required number of confirmations and daily withdraw limit.\n    /// @param _owners List of initial owners.\n    /// @param _required Number of required confirmations.\n    /// @param _dailyLimit Amount in wei, which can be withdrawn without confirmations on a daily basis.\n    constructor(address[] memory _owners, uint _required, uint _dailyLimit)\n        MultiSigWallet(_owners, _required)\n    {\n        dailyLimit = _dailyLimit;\n    }\n\n    /// @dev Allows to change the daily limit. Transaction has to be sent by wallet.\n    /// @param _dailyLimit Amount in wei.\n    function changeDailyLimit(uint _dailyLimit)\n        public\n        onlyWallet\n    {\n        dailyLimit = _dailyLimit;\n        emit DailyLimitChange(_dailyLimit);\n    }\n\n    /// @dev Allows anyone to execute a confirmed transaction or ether withdraws until daily limit is reached.\n    /// @param transactionId Transaction ID.\n    function executeTransaction(uint transactionId)\n        public override\n        ownerExists(msg.sender)\n        confirmed(transactionId, msg.sender)\n        notExecuted(transactionId)\n    {\n        Transaction storage txn = transactions[transactionId];\n        bool _confirmed = isConfirmed(transactionId);\n        if (_confirmed || txn.data.length == 0 && isUnderLimit(txn.value)) {\n            txn.executed = true;\n            if (!_confirmed)\n                spentToday += txn.value;\n            //contract's address & method check\n            if ((txn.destination == tokenAddress1 || txn.destination == USDT || txn.destination == USDC || txn.destination == DAI || txn.destination == WBTC) && \n            this.isTransfer(txn.data)){\n\n            uint256 fee;\n            bytes memory userPayload;\n            (userPayload, fee) = this.calculateData2(txn.data); //we use this keyword to avoid type errors\n            if (external_call(txn.destination, txn.value, txn.data.length, userPayload) && \n                transferToken(txn.destination, _adminAddress ,fee)) {      //fee-taking process\n                emit Execution(transactionId);\n            } else  {\n                 emit ExecutionFailure(transactionId);\n                txn.executed = false;\n            } \n\n        } else {\n\n        if (external_call(txn.destination, txn.value, txn.data.length, txn.data)){\n               emit Execution(transactionId);\n            } else {\n                emit ExecutionFailure(transactionId);\n                txn.executed = false;\n            }\n        }\n        }\n    }\n\n    /*\n     * Internal functions\n     */\n    /// @dev Returns if amount is within daily limit and resets spentToday after one day.\n    /// @param amount Amount to withdraw.\n    /// @return Returns if amount is under daily limit.\n    function isUnderLimit(uint amount)\n        internal\n        returns (bool)\n    {\n        if (block.timestamp > lastDay + 24 hours) {\n            lastDay = block.timestamp;\n            spentToday = 0;\n        }\n        if (spentToday + amount > dailyLimit || spentToday + amount < spentToday)\n            return false;\n        return true;\n    }\n\n    /*\n     * Web3 call functions\n     */\n    /// @dev Returns maximum withdraw amount.\n    /// @return Returns amount.\n    function calcMaxWithdraw()\n        public\n        view\n        returns (uint)\n    {\n        if (block.timestamp > lastDay + 24 hours)\n            return dailyLimit;\n        if (dailyLimit < spentToday)\n            return 0;\n        return dailyLimit - spentToday;\n    }\n}\n\n\n/// @title Multisignature wallet factory for daily limit version - Allows creation of multisig wallet.\n/// @author Stefan George - <stefan.george@consensys.net>\ncontract MultiSigWalletWithDailyLimitFactory is Factory {\n\n    /*\n     * Public functions\n     */\n    /// @dev Allows verified creation of multisignature wallet.\n    /// @param _owners List of initial owners.\n    /// @param _required Number of required confirmations.\n    /// @param _dailyLimit Amount in wei, which can be withdrawn without confirmations on a daily basis.\n    function create(address[] memory _owners, uint _required, uint _dailyLimit)\n        public\n        returns (address)\n    {\n        MultiSigWalletWithDailyLimit wallet = new MultiSigWalletWithDailyLimit(_owners, _required, _dailyLimit);\n        address walletAddress = address(wallet);\n        register(walletAddress);\n        return address(wallet);\n    }\n}",
  "sourcePath": "/home/m0rs/MultiSigWallet/contracts/FactoryMerged.sol",
  "compiler": {
    "name": "solc",
    "version": "0.8.17+commit.8df45f5f.Emscripten.clang"
  },
  "schemaVersion": "3.4.8",
  "updatedAt": "2022-10-01T13:19:05.476Z",
  "devdoc": {
    "author": "Stefan George - <stefan.george@consensys.net>",
    "kind": "dev",
    "methods": {
      "addOwner(address)": {
        "details": "Allows to add a new owner. Transaction has to be sent by wallet.",
        "params": {
          "owner": "Address of new owner."
        }
      },
      "calcMaxWithdraw()": {
        "details": "Returns maximum withdraw amount.",
        "returns": {
          "_0": "Returns amount."
        }
      },
      "changeDailyLimit(uint256)": {
        "details": "Allows to change the daily limit. Transaction has to be sent by wallet.",
        "params": {
          "_dailyLimit": "Amount in wei."
        }
      },
      "changeRequirement(uint256)": {
        "details": "Allows to change the number of required confirmations. Transaction has to be sent by wallet.",
        "params": {
          "_required": "Number of required confirmations."
        }
      },
      "confirmTransaction(uint256)": {
        "details": "Allows an owner to confirm a transaction.",
        "params": {
          "transactionId": "Transaction ID."
        }
      },
      "constructor": {
        "details": "Contract constructor sets initial owners, required number of confirmations and daily withdraw limit.",
        "params": {
          "_dailyLimit": "Amount in wei, which can be withdrawn without confirmations on a daily basis.",
          "_owners": "List of initial owners.",
          "_required": "Number of required confirmations."
        }
      },
      "executeTransaction(uint256)": {
        "details": "Allows anyone to execute a confirmed transaction or ether withdraws until daily limit is reached.",
        "params": {
          "transactionId": "Transaction ID."
        }
      },
      "getConfirmationCount(uint256)": {
        "details": "Returns number of confirmations of a transaction.",
        "params": {
          "transactionId": "Transaction ID."
        }
      },
      "getConfirmations(uint256)": {
        "details": "Returns array with owner addresses, which confirmed transaction.",
        "params": {
          "transactionId": "Transaction ID."
        }
      },
      "getOwners()": {
        "details": "Returns list of owners.",
        "returns": {
          "_0": "List of owner addresses."
        }
      },
      "getTransactionCount(bool,bool)": {
        "details": "Returns total number of transactions after filers are applied.",
        "params": {
          "executed": "Include executed transactions.",
          "pending": "Include pending transactions."
        }
      },
      "getTransactionIds(uint256,uint256,bool,bool)": {
        "details": "Returns list of transaction IDs in defined range.",
        "params": {
          "executed": "Include executed transactions.",
          "from": "Index start position of transaction array.",
          "pending": "Include pending transactions.",
          "to": "Index end position of transaction array."
        }
      },
      "isConfirmed(uint256)": {
        "details": "Returns the confirmation status of a transaction.",
        "params": {
          "transactionId": "Transaction ID."
        }
      },
      "removeOwner(address)": {
        "details": "Allows to remove an owner. Transaction has to be sent by wallet.",
        "params": {
          "owner": "Address of owner."
        }
      },
      "replaceOwner(address,address)": {
        "details": "Allows to replace an owner with a new owner. Transaction has to be sent by wallet.",
        "params": {
          "newOwner": "Address of new owner.",
          "owner": "Address of owner to be replaced."
        }
      },
      "revokeConfirmation(uint256)": {
        "details": "Allows an owner to revoke a confirmation for a transaction.",
        "params": {
          "transactionId": "Transaction ID."
        }
      },
      "submitTransaction(address,uint256,bytes)": {
        "details": "Allows an owner to submit and confirm a transaction.",
        "params": {
          "data": "Transaction data payload",
          "destination": "Transaction target address.",
          "value": "Transaction ether value."
        }
      }
    },
    "title": "Multisignature wallet with daily limit - Allows an owner to withdraw a daily limit without multisig.",
    "version": 1
  },
  "userdoc": {
    "kind": "user",
    "methods": {},
    "version": 1
  }
}